{
  "transactions": [
    {
      "hash": "0xf32f1160a3f27f06a4b9d8984d724e2d987558076c35e0ec2fb3d18977c107b8",
      "transactionType": "CALL",
      "contractName": "LinkToken",
      "contractAddress": "0x779877A7B0D9E8603169DdbD7836e478b4624789",
      "function": "transferAndCall(address,uint256,bytes):(bool)",
      "arguments": [
        "0x8103B0A8A00be2DDC778e6e7eaa21791Cd364625",
        "3000000000000000000",
        "0x00000000000000000000000000000000000000000000000000000000000017ca"
      ],
      "transaction": {
        "type": "0x02",
        "from": "0x4ccfb7701c79aa282ce1272d924b4c448ae03794",
        "to": "0x779877a7b0d9e8603169ddbd7836e478b4624789",
        "gas": "0x1b43f",
        "value": "0x0",
        "data": "0x4000aea00000000000000000000000008103b0a8a00be2ddc778e6e7eaa21791cd36462500000000000000000000000000000000000000000000000029a2241af62c00000000000000000000000000000000000000000000000000000000000000000060000000000000000000000000000000000000000000000000000000000000002000000000000000000000000000000000000000000000000000000000000017ca",
        "nonce": "0x2",
        "accessList": []
      },
      "additionalContracts": [],
      "isFixedGasLimit": false
    }
  ],
  "receipts": [],
  "libraries": [],
  "pending": [
    "0xf32f1160a3f27f06a4b9d8984d724e2d987558076c35e0ec2fb3d18977c107b8"
  ],
  "returns": {},
  "timestamp": 1697647951,
  "chain": 11155111,
  "multi": false,
  "commit": "fd07755"
}