{
  "transactions": [
    {
      "hash": "0xf32f1160a3f27f06a4b9d8984d724e2d987558076c35e0ec2fb3d18977c107b8",
      "transactionType": "CALL",
      "contractName": "LinkToken",
      "contractAddress": "0x779877A7B0D9E8603169DdbD7836e478b4624789",
      "function": "transferAndCall(address,uint256,bytes):(bool)",
      "arguments": [
        "0x8103B0A8A00be2DDC778e6e7eaa21791Cd364625",
        "3000000000000000000",
        "0x00000000000000000000000000000000000000000000000000000000000017ca"
      ],
      "transaction": {
        "type": "0x02",
        "from": "0x4ccfb7701c79aa282ce1272d924b4c448ae03794",
        "to": "0x779877a7b0d9e8603169ddbd7836e478b4624789",
        "gas": "0x1b43f",
        "value": "0x0",
        "data": "0x4000aea00000000000000000000000008103b0a8a00be2ddc778e6e7eaa21791cd36462500000000000000000000000000000000000000000000000029a2241af62c00000000000000000000000000000000000000000000000000000000000000000060000000000000000000000000000000000000000000000000000000000000002000000000000000000000000000000000000000000000000000000000000017ca",
        "nonce": "0x2",
        "accessList": []
      },
      "additionalContracts": [],
      "isFixedGasLimit": false
    }
  ],
  "receipts": [
    {
      "transactionHash": "0xf32f1160a3f27f06a4b9d8984d724e2d987558076c35e0ec2fb3d18977c107b8",
      "transactionIndex": "0x2",
      "blockHash": "0xb2107305ef96ec97ad71fb4d2285adbb4b89cbe60574350ce44359d9f86fb273",
      "blockNumber": "0x44e32c",
      "from": "0x4ccFb7701c79aA282cE1272d924B4c448Ae03794",
      "to": "0x779877A7B0D9E8603169DdbD7836e478b4624789",
      "cumulativeGasUsed": "0x4562e",
      "gasUsed": "0x12a4a",
      "contractAddress": null,
      "logs": [
        {
          "address": "0x779877A7B0D9E8603169DdbD7836e478b4624789",
          "topics": [
            "0xddf252ad1be2c89b69c2b068fc378daa952ba7f163c4a11628f55a4df523b3ef",
            "0x0000000000000000000000004ccfb7701c79aa282ce1272d924b4c448ae03794",
            "0x0000000000000000000000008103b0a8a00be2ddc778e6e7eaa21791cd364625"
          ],
          "data": "0x00000000000000000000000000000000000000000000000029a2241af62c0000",
          "blockHash": "0xb2107305ef96ec97ad71fb4d2285adbb4b89cbe60574350ce44359d9f86fb273",
          "blockNumber": "0x44e32c",
          "transactionHash": "0xf32f1160a3f27f06a4b9d8984d724e2d987558076c35e0ec2fb3d18977c107b8",
          "transactionIndex": "0x2",
          "logIndex": "0x2",
          "removed": false
        },
        {
          "address": "0x779877A7B0D9E8603169DdbD7836e478b4624789",
          "topics": [
            "0xe19260aff97b920c7df27010903aeb9c8d2be5d310a2c67824cf3f15396e4c16",
            "0x0000000000000000000000004ccfb7701c79aa282ce1272d924b4c448ae03794",
            "0x0000000000000000000000008103b0a8a00be2ddc778e6e7eaa21791cd364625"
          ],
          "data": "0x00000000000000000000000000000000000000000000000029a2241af62c00000000000000000000000000000000000000000000000000000000000000000040000000000000000000000000000000000000000000000000000000000000002000000000000000000000000000000000000000000000000000000000000017ca",
          "blockHash": "0xb2107305ef96ec97ad71fb4d2285adbb4b89cbe60574350ce44359d9f86fb273",
          "blockNumber": "0x44e32c",
          "transactionHash": "0xf32f1160a3f27f06a4b9d8984d724e2d987558076c35e0ec2fb3d18977c107b8",
          "transactionIndex": "0x2",
          "logIndex": "0x3",
          "removed": false
        },
        {
          "address": "0x8103B0A8A00be2DDC778e6e7eaa21791Cd364625",
          "topics": [
            "0xd39ec07f4e209f627a4c427971473820dc129761ba28de8906bd56f57101d4f8",
            "0x00000000000000000000000000000000000000000000000000000000000017ca"
          ],
          "data": "0x000000000000000000000000000000000000000000000000000000000000000000000000000000000000000000000000000000000000000029a2241af62c0000",
          "blockHash": "0xb2107305ef96ec97ad71fb4d2285adbb4b89cbe60574350ce44359d9f86fb273",
          "blockNumber": "0x44e32c",
          "transactionHash": "0xf32f1160a3f27f06a4b9d8984d724e2d987558076c35e0ec2fb3d18977c107b8",
          "transactionIndex": "0x2",
          "logIndex": "0x4",
          "removed": false
        }
      ],
      "status": "0x1",
      "logsBloom": "0x0000001400000000000000000000000000000000000000020000000002800000000000000000800000000000000000000000000000000000000000000000000000000000000000000000000800000000000000000000000000002000000000000000000000000000400000000000000000000000400000000000801000000000000000000c000020000000002000800010000020000000000000000000000000000000000000000000000000000000000000000000000000000400000000000000000002000000000000000000000000000000020000000100000000000000000800000000000000000000000000000000000000000000000000000000000000",
      "type": "0x2",
      "effectiveGasPrice": "0xb2d05e3b"
    }
  ],
  "libraries": [],
  "pending": [],
  "returns": {},
  "timestamp": 1697647971,
  "chain": 11155111,
  "multi": false,
  "commit": "fd07755"
}